:100000000C9456000C941E030C9473000C94730013
:100010000C9473000C9473000C9473000C94730094
:100020000C9473000C9473000C9473000C943903BB
:100030000C9473000C9473000C9473000C94730074
:100040000C9473000C9473000C9473000C94730064
:100050000C9473000C94D2020C9473000C947300F3
:100060000C9457020C94730095009E00AA00B600F1
:10007000C200CE00E90004010D0119012501310182
:100080003F015A017501520252027B01880194011D
:10009000A001AC01BC01C801D401E001F001FC01E8
:1000A00008021402240230023C02480211241FBE3E
:1000B000CFEFD8E0DEBFCDBF11E0A0E0B1E0ECECC7
:1000C000FDE002C005900D92A637B107D9F721E0F7
:1000D000A6E7B1E001C01D92A238B207E1F70E9485
:1000E0009D020C94E4060C94000040E050E084175C
:1000F000950758F020E030E0293C310518F42F5FD7
:100100003F4FFACF4F5F5F4FF2CF0895CF93DF930A
:10011000E09181018E2F90E08232910508F0C2C1FA
:10012000FC01EC5CFF4F0C94E60385EA8093BC0075
:10013000809181018F5F80938101B6C188E78093B0
:10014000BB0085E88093BC00809181018F5F809324
:100150008101AAC180E88093BB0085E88093BC0040
:10016000809181018F5F809381019EC180E880939F
:10017000BB0085E88093BC00809181018F5F8093F4
:10018000810192C180E48093BB0085E88093BC002C
:10019000809181018F5F8093810186C1E091800110
:1001A000F0E0E15CFE4F80818093BB008091800194
:1001B000833120F48F5F8093800107C0109280010B
:1001C000809181018F5F8093810185E88093BC00DD
:1001D0006BC1E0918001F0E0EB5EFE4F8081809387
:1001E000BB0080918001833120F48F5F8093800178
:1001F00007C010928001809181018F5F80938101FF
:1002000085E88093BC0050C185EA8093BC00809152
:1002100081018F5F8093810147C188E78093BB0094
:1002200085E88093BC00809181018F5F809381017C
:100230003BC180E88093BB0085E88093BC0080913F
:1002400081018F5F809381012FC180EC8093BB007F
:1002500085E88093BC00809181018F5F809381014C
:1002600023C180E48093BB0085E88093BC0010929A
:100270008001809181018F5F8093810115C1E091A0
:100280008001F0E0E65DFE4F80818093BB008091AD
:100290008001833120F48F5F8093800107C010922A
:1002A0008001809181018F5F8093810185E8809337
:1002B000BC00FAC0E0918001F0E0E050FF4F808187
:1002C0008093BB0080918001833120F48F5F809305
:1002D000800107C010928001809181018F5F80931F
:1002E000810185E88093BC00DFC085E98093BC0074
:1002F00010928101D9C080E991E00E94750085EAE1
:100300008093BC00809181018F5F80938101CCC07C
:1003100088E78093BB0085E88093BC0080918101D1
:100320008F5F80938101C0C080E88093BB0085E827
:100330008093BC00809181018F5F80938101B4C064
:1003400088E38093BB0085E88093BC0080918101A5
:100350008F5F80938101A8C0CCEBD0E085E98883D2
:1003600081E090E00E94750085EA88838091810198
:100370008F5F8093810198C088E78093BB0085E8F8
:100380008093BC00809181018F5F809381018CC03C
:1003900080E88093BB0085E88093BC008091810158
:1003A0008F5F8093810180C08CE08093BB0085E8E3
:1003B0008093BC00809181018F5F8093810174C024
:1003C000CCEBD0E085E9888381E090E00E94750065
:1003D00085EA8883809181018F5F8093810164C069
:1003E00088E78093BB0085E88093BC008091810101
:1003F0008F5F8093810158C080E88093BB0085E8BF
:100400008093BC00809181018F5F809381014CC0FB
:1004100081E08093BB0085E88093BC0080918101DE
:100420008F5F8093810140C0CCEBD0E085E9888369
:1004300084E690E00E94750085EA888380918101BE
:100440008F5F8093810130C088E78093BB0085E88F
:100450008093BC00809181018F5F8093810124C0D3
:1004600080E88093BB0085E88093BC008091810187
:100470008F5F8093810118C081E08093BB0085E885
:100480008093BC00809181018F5F809381010CC0BB
:1004900085E98093BC0081E090E00E947500109295
:1004A000810102C010928101DF91CF9108951F92C6
:1004B0000F920FB60F9211242F933F934F935F9398
:1004C0006F937F938F939F93AF93BF93EF93FF931C
:1004D0009BB184E089278BB98091B900887F8031F6
:1004E00061F018F4883031F010C0883149F088325A
:1004F00051F00BC00E94860008C00E94860005C013
:100500000E94860002C00E9486009BB184E0892779
:100510008BB9FF91EF91BF91AF919F918F917F9197
:100520006F915F914F913F912F910F900FBE0F9060
:100530001F90189587BD68BD089588E184B980E350
:1005400087B98EE08AB983EA84BD85E085BD17BC92
:1005500018BC90E4909380009BE090938100C2E0EF
:10056000C0936F0027EA31E630938900209388001A
:1005700092E39093B8008093BC00C093B90081E1EE
:10058000809381010E94860080E680937C008FE842
:1005900080937A00C0937E00C093690081E08DBB98
:1005A0007894FFCF1F920F920FB60F9211242F93C2
:1005B0003F938F939F938091780090E0082E892F2E
:1005C000000C881F990B000C881F991F209179003F
:1005D00030E0220F331F220F331F822B90917601C0
:1005E000913049F028F0923049F0933051F00BC02F
:1005F00080937B0108C080937A0105C080937901C4
:1006000002C0809378019BB182E089278BB98091E9
:1006100076018F5F80937601843010F0109276011E
:1006200080917601806680937B009F918F913F91AE
:100630002F910F900FBE0F901F9018951F920F9241
:100640000FB60F9211248F939F9389B190E09595E7
:1006500087959595879595958795959587958170BB
:10066000809377019F918F910F900FBE0F901F90F5
:1006700018951F920F920FB60F9211242F933F934C
:100680004F935F936F937F938F939F93AF93BF939A
:10069000CF93EF93FF93EAE7F0E08081806480835B
:1006A00081E680937C0080917E0190917F01C397C9
:1006B0004CF0109281010E94860010927F011092EE
:1006C0007E0109C080917E0190917F0101969093F7
:1006D0007F0180937E0180917B01883C28F462E356
:1006E00088EC0E949A020DC080917901883C28F420
:1006F00068EC82E30E949A0204C068EC88EC0E94D5
:100700009A0280917B011F928F938BE591E09F93DA
:100710008F931F92C5E1CF938FE391E09F938F93C7
:100720000E94EC03809179011F928F9381E691E002
:100730009F938F931F92CF938AE291E09F938F9321
:100740000E94EC03809177012DB73EB7205F3F4FA9
:100750000FB6F8943EBF0FBE2DBF882319F084E575
:1007600091E002C087E591E09F938F9387E691E047
:100770009F938F931F9285E18F9385E191E09F93E3
:100780008F930E94EC0380917C0190917D010196F2
:1007900090937D0180937C018DB79EB708960FB62C
:1007A000F8949EBF0FBE8DBFFF91EF91CF91BF9187
:1007B000AF919F918F917F916F915F914F913F91F9
:1007C0002F910F900FBE0F901F901895EE0FFF1FE7
:1007D0000590F491E02D0994AEE0B0E0E2EFF3E093
:1007E0000C94BB060D891E898F89988D26E02C8379
:1007F0001A83098397FF02C080E090E801979E83E7
:100800008D83AE01455E5F4F698D7A8DCE01019675
:100810000E941C044D815E8157FD0AC02F813885DE
:10082000421753070CF49A01F801E20FF31F1082EC
:100830002E96E4E00C94D706ABE0B0E0E2E2F4E000
:100840000C94AD066C017B018A01FC0117821682B3
:10085000838181FFCCC1CE0101963C01F6019381D9
:10086000F70193FD859193FF81917F01882309F41E
:10087000BAC1853239F493FD859193FF81917F014F
:10088000853229F4B60190E00E941306E7CF912C3F
:10089000212C312CFFE1F315D8F08B3279F038F4AC
:1008A000803279F08332A1F4232D20611DC08D3276
:1008B00061F0803369F4232D216016C0832D82609E
:1008C000382EE32DE4603E2E2AC0F32DF8601DC0C3
:1008D00037FC2DC020ED280F2A3040F08E32B9F4BD
:1008E00036FC81C1232D2064322E19C036FE06C08D
:1008F0008AE0989E200D1124922E11C0EAE02E9ECF
:10090000200D1124222EF32DF0623F2E08C08C36CC
:1009100021F4832D8068382E02C0883641F4F70117
:1009200093FD859193FF81917F018111B3CF982F22
:100930009F7D9554933028F40C5F1F4F9FE399835C
:100940000DC0833631F0833771F0833509F059C01B
:1009500021C0F801808189830E5F1F4F8824839412
:10096000912C530113C02801F2E04F0E511CF801E5
:10097000A080B18036FE03C0692D70E002C06FEF29
:100980007FEFC5010E9408064C018201F32DFF771D
:100990003F2E16C0280122E0420E511CF801A08013
:1009A000B18036FE03C0692D70E002C06FEF7FEFAB
:1009B000C5010E94FD054C01F32DF0683F2E820118
:1009C00033FC1BC0822D90E088169906B0F4B60166
:1009D00080E290E00E9413062A94F4CFF50137FCE0
:1009E000859137FE81915F01B60190E00E94130668
:1009F00021102A9421E0821A91088114910471F740
:100A0000E8C0843611F0893641F5F80137FE07C099
:100A100060817181828193810C5F1F4F08C060816A
:100A20007181072E000C880B990B0E5F1F4FF32D61
:100A3000FF763F2E97FF09C0909580957095619540
:100A40007F4F8F4F9F4FF0683F2E2AE030E0A30189
:100A50000E944F06882E861845C0853731F4232D15
:100A60002F7EB22E2AE030E025C0932D997FB92E3B
:100A70008F36C1F018F4883579F0B5C0803719F099
:100A8000883721F0B0C0E92FE061BE2EB4FE0DC062
:100A9000FB2DF460BF2E09C034FE0AC0292F26604A
:100AA000B22E06C028E030E005C020E130E002C0F0
:100AB00020E132E0F801B7FE07C0608171818281D8
:100AC00093810C5F1F4F06C06081718180E090E0D0
:100AD0000E5F1F4FA3010E944F06882E8618FB2D24
:100AE000FF773F2E36FE0DC0232D2E7FA22E8914B8
:100AF00058F434FE0BC032FC09C0832D8E7EA82E24
:100B000005C0B82CA32C03C0B82C01C0B92CA4FE7E
:100B10000FC0FE01E80DF11D8081803321F49A2D74
:100B2000997EA92E09C0A2FE06C0B394B39404C056
:100B30008A2D867809F0B394A3FC11C0A0FE06C0EC
:100B4000B21488F4280C922C9B180EC0B21460F4D6
:100B5000B60180E290E00E941306B394F7CFB2147E
:100B600018F42B1802C0982C212CA4FE10C0B6013A
:100B700080E390E00E941306A2FE17C0A1FC03C010
:100B800088E790E002C088E590E0B6010CC08A2DAD
:100B9000867859F0A1FE02C08BE201C080E2A7FC7A
:100BA0008DE2B60190E00E941306891438F4B60174
:100BB00080E390E00E9413069A94F7CF8A94F301A1
:100BC000E80DF11D8081B60190E00E9413068110AE
:100BD000F5CF222009F442CEB60180E290E00E94D7
:100BE00013062A94F6CFF6018681978102C08FEF13
:100BF0009FEF2B96E2E10C94C906FC010590615031
:100C000070400110D8F7809590958E0F9F1F089522
:100C1000FC016150704001900110D8F780959095CB
:100C20008E0F9F1F08950F931F93CF93DF93FB01A8
:100C3000238121FD03C08FEF9FEF2CC022FF16C040
:100C400046815781248135814217530744F4A0819E
:100C5000B1819D012F5F3F4F318320838C9326818B
:100C600037812F5F3F4F3783268314C08B01EC0100
:100C7000FB010084F185E02D0995892BE1F6D8016F
:100C800016968D919C911797019617969C938E932B
:100C90001697CE01DF91CF911F910F910895FA0120
:100CA000AA27283051F1203181F1E8946F936E7FAB
:100CB0006E5F7F4F8F4F9F4FAF4FB1E03ED0B4E09C
:100CC0003CD0670F781F891F9A1FA11D680F791FDD
:100CD0008A1F911DA11D6A0F711D811D911DA11DEE
:100CE00020D009F468943F912AE0269F11243019FE
:100CF000305D3193DEF6CF010895462F4770405D99
:100D00004193B3E00FD0C9F7F6CF462F4F70405D47
:100D10004A3318F0495D31FD4052419302D0A9F7A2
:100D2000EACFB4E0A6959795879577956795BA959C
:100D3000C9F700976105710508959B01AC010A2E62
:100D400006945795479537952795BA95C9F7620F39
:100D5000731F841F951FA01D08952F923F924F92DD
:100D60005F926F927F928F929F92AF92BF92CF923B
:100D7000DF92EF92FF920F931F93CF93DF93CDB744
:100D8000DEB7CA1BDB0B0FB6F894DEBF0FBECDBFBC
:100D900009942A88398848885F846E847D848C848D
:100DA0009B84AA84B984C884DF80EE80FD800C8196
:100DB0001B81AA81B981CE0FD11D0FB6F894DEBF79
:0C0DC0000FBECDBFED010895F894FFCFE9
:100DCC002020202020202020202020202020202017
:100DDC002020202000202020202020202020202027
:100DEC002020202020202020200020202020202017
:100DFC002020202020202020202020202020002007
:100E0C0020202020202020202020202020202020D6
:100E1C00202020004F6E004F6666004D313A25753C
:100E2C00004D323A257500427574746F6E3A202568
:060E3C002D3133730000AC
:00000001FF
